:020000040800F2
:1000000000500020ED030008D5030008D7030008C6
:10001000D9030008DB030008DD030008000000002E
:10002000000000000000000000000000DF030008E6
:10003000E103000800000000E3030008E5030008F6
:1000400035040008350400083504000835040008AC
:10005000350400083504000835040008350400089C
:10006000350400083504000835040008350400088C
:10007000350400083504000835040008350400087C
:10008000350400083504000835040008350400086C
:10009000350400083504000835040008350400085C
:1000A000350400083504000835040008350400084C
:1000B000350400083504000835040008350400083C
:1000C000350400083504000835040008350400082C
:1000D000350400083504000835040008350400081C
:1000E000350400083504000835040008000000004D
:1000F0000000000000000000000000000000000000
:0C01000000000000000000005FF808F1A3
:10010C0010B5054C237833B9044B13B10448AFF345
:10011C0000800123237010BD0C00002000000000A3
:10012C00080E000808B5034B1BB103490348AFF395
:10013C00008008BD0000000010000020080E000820
:10014C0010B590B02422002107A800F02AFE00214F
:10015C00142201A800F025FE02240122102306A877
:10016C00CDE90A2306940D9400F0DCFA014608B19F
:10017C0072B6FEE70F23CDE90300059001A8CDE987
:10018C00013400F091FC08B172B6FEE710B010BD5E
:10019C00102500B589B000F06DF9FFF7D1FF2A46A4
:1001AC0000210DEB050000F0FCFD354B48F2010180
:1001BC009A69344842F020029A619A69002402F04C
:1001CC0020020192019A9A6942F004029A619A699A
:1001DC0002F004020292029A9A6942F008029A61B1
:1001EC009B69002203F008030393039B00F094FA2D
:1001FC0048F2010C0123CDE904C3022321480DEB85
:10020C000501CDE9064300F0AFF9CDE9045406949D
:10021C001D4C1C480DEB050100F0A6F9204600F022
:10022C00FFFC08B172B6FEE74FF48273174DC4E9B8
:10023C000200C4E900534FF48023C4E906300A23BA
:10024C00C4E90400C4E90800A0622046E36200F09F
:10025C00E7FC034608B172B6FEE74FF4E1320C48F6
:10026C000C49C0E90233C0E900120C220361C0E959
:10027C000523C36100F066FD08B172B6FEE7FEE728
:10028C0000100240000C01407000002000300140C2
:10029C0028000020003801400E4B82B09A6942F0D1
:1002AC0001029A619A6902F001020092009ADA69DD
:1002BC0042F08052DA61DB69074A03F08053019304
:1002CC00019B536823F0E06343F08063536002B0FA
:1002DC00704700BF001002400000014010B50446FA
:1002EC0086B01022002102A800F05BFD2268164B9C
:1002FC009A4226D103F560439A69144842F480521D
:10030C009A619A6902A902F480520092009A9A6941
:10031C0042F004029A619B69B02203F0040301933A
:10032C00019B0223CDE902230323059300F01CF962
:10033C00402100230548CDE9021302A9049300F0E3
:10034C0013F906B010BD00BF003001400008014099
:10035C0010B5044686B01022002102A800F021FD41
:10036C002268174B9A4228D103F558439A691548CD
:10037C0042F480429A619A6902A902F48042009286
:10038C00009A9A6942F004029A619B694FF40072D8
:10039C0003F004030193019B0223CDE90223032301
:1003AC00059300F0E1F84FF4806100230548CDE996
:1003BC00021302A9049300F0D7F806B010BD00BFD9
:1003CC000038014000080140FEE7FEE7FEE7FEE7CB
:1003DC00FEE770477047704700F05EB8704700004A
:1003EC00FFF7FCFF0B480C490C4A002302E0D458E1
:1003FC00C4500433C4188C42F9D3094A094C002365
:10040C0001E013600432A242FBD300F0D3FCFFF7EF
:10041C00BFFE7047000000200C000020540E0008A6
:10042C000C000020CC000020FEE7000038B50E4B7D
:10043C0005461A784FF47A73B3FBF2F30B4A106843
:10044C00B0FBF3F000F07CF8044658B90F2D09D836
:10045C00024629464FF0FF3000F042F82046044B8C
:10046C001D6038BD0120FCE70400002000000020C6
:10047C0008000020074A08B51368032043F0100356
:10048C00136000F01BF80F20FFF7D0FFFFF704FFFD
:10049C00002008BD00200240034A044B11681B7861
:1004AC000B441360704700BFC800002004000020FC
:1004BC00014B1868704700BFC800002007490302B1
:1004CC00CA6803F4E06322F4E0621204120C1343D2
:1004DC0043F0BF6343F40033CB60704700ED00E0A2
:1004EC00154B30B5DC68C4F30224C4F10703251D99
:1004FC00042B28BF0423062D4FF0FF3594BF002496
:10050C00033C05FA03F321EA0303A54022EA0502A2
:10051C00A340002843EA0203ACBF00F16040074A45
:10052C004FEA0313DBB2ABBF00F5614000F00F00E4
:10053C0080F80033135430BD00ED00E014ED00E002
:10054C000138B0F1807F0BD24FF0E023F021054A47
:10055C00586182F823100020072298611A617047B5
:10056C000120704700ED00E02DE9F74F00242646EE
:10057C00DFF888C1624BDFF88CE1DFF88C810A6808
:10058C0032FA06F502D103B0BDE8F08F0127B7406F
:10059C0002EA070537EA02027AD14A68032A07D829
:1005AC00013A022A00F28380DFE802F092979D0064
:1005BC00122A00F095806DD8112A00F08B80FF2D47
:1005CC0098BF81464FF00F0B88BF00F104094FEA2A
:1005DC008602D9F8007088BF203A0BFA02FA27EA93
:1005EC000A0704FA02F21743C9F80070D1F8049014
:1005FC0019F0805F4CD0DCF8182026F0030742F08D
:10060C000102CCF81820DCF8182007F1804702F022
:10061C000102019207F5803706F0030A019A4FEAAE
:10062C008A0ABA680BFA0AFB22EA0B0B374A904289
:10063C005DD002F5806290425BD002F58062904200
:10064C0059D002F58062904214BF0422032202FAB0
:10065C000AF242EA0B02BA609A6819F4801F14BFBE
:10066C002A43AA439A60DA6819F4001F14BF2A437C
:10067C00AA43DA605A6819F4003F14BF2A43AA430C
:10068C005A601A6819F4803F14BF2A43AA431A60AF
:10069C00013674E7DFF878904A4508D010D8A9F5F0
:1006AC0080194A4503D0724501D0424587D18A68EA
:1006BC00DAB1012A4FF008040CBF076147617EE7ED
:1006CC00DFF850904A45F2D009F580394A45EDE7FC
:1006DC00CC6874E7CC68043471E7CC6808346EE7F6
:1006EC00CC680C346BE7002469E7042467E700222C
:1006FC00ADE70122ABE70222A9E700BF00100240E0
:10070C0000040140000021100000111000080140FD
:10071C0000002210000031100AB101617047090479
:10072C00FBE700002DE9F341054638B30368DB070E
:10073C0010D42B689F075ED42B68190700F19580A5
:10074C002B685A0700F1C180EB69002B40F02C811B
:10075C00002029E0904C636803F00C03042B07D0B5
:10076C00636803F00C03082B0AD16368DE0307D51A
:10077C0023689C03DDD56B68002BDAD1012013E0D4
:10078C006B68B3F5803F12D1236843F48033236048
:10079C00FFF78EFE064623689803CAD4FFF788FE3F
:1007AC00801B6428F7D9032002B0BDE8F0819BB907
:1007BC00236823F480332360236823F4802323608D
:1007CC00FFF776FE064623689903B2D5FFF770FE55
:1007DC00801B6428F7D9E6E7B3F5A02F236803D173
:1007EC0043F480232360CFE723F480332360236812
:1007FC0023F48023CBE7684C636813F00C0F07D00D
:10080C00636803F00C03082B10D16368DA030DD472
:10081C0023689B0702D52B69012BAFD123686A692A
:10082C0023F0F80343EAC203236085E72A695B4B94
:10083C006AB101221A60FFF73BFE064623689F0748
:10084C00ECD4FFF735FE801B0228F7D9ABE71A6012
:10085C00FFF72EFE0646236898077FF56DAFFFF76E
:10086C0027FE801B0228F6D99DE7AA694A4E4B4BFE
:10087C00E2B10122C3F88024FFF71AFE0446736A22
:10088C009B070DD54FF4FA52454B1B68B3FBF2F3A3
:10089C00019300BF019B5A1E0192002BF9D14FE727
:1008AC00FFF706FE001B0228E9D97CE7C3F8802479
:1008BC00FFF7FEFD0446736A9F077FF541AFFFF714
:1008CC00F7FD001B0228F6D96DE7334CE369D8001D
:1008DC0024D40127E36943F08053E361E36903F017
:1008EC0080530093009B2F4E3368D90518D5EB68C5
:1008FC00012B26D1236A43F001032362FFF7D8FDB5
:10090C0041F288380646236A9B073FD5002F3FF4F7
:10091C001BAFE36923F08053E36115E70027E2E79F
:10092C00336843F480733360FFF7C2FD804633684D
:10093C00DA05DCD4FFF7BCFDA0EB08006428F6D97F
:10094C0031E7ABB9236A41F2883823F00103236203
:10095C00236A23F004032362FFF7AAFD0646236AE9
:10096C009807D3D5FFF7A4FD801B4045F7D91AE7AC
:10097C00052B236A03D143F004032362BAE723F067
:10098C0001032362236A23F00403B6E7FFF790FD0B
:10099C00801B4045B7D906E70010024000004242D8
:1009AC0000000020007000402A4C626802F00C022B
:1009BC00082A3ED00022022B274B1A662CD1FFF7B7
:1009CC0077FD06462368990120D42B6AB3F5803F46
:1009DC0005D16268A96822F400320A436260696A30
:1009EC0062680B4322F474121343012263601A4BA6
:1009FC001A66FFF75DFD054623689A013FF5A8AE20
:100A0C00FFF756FD401B0228F6D9CCE6FFF750FD48
:100A1C00801B0228D6D9C6E6FFF74AFD0546236897
:100A2C009B017FF595AEFFF743FD401B0228F6D9DD
:100A3C00B9E6012B3FF4A2AE60682B6A00F4803259
:100A4C009A427FF49BAE6B6A00F47010C01A18BF08
:100A5C000120A9E600100240000042420D4A5368F2
:100A6C0003F00C01082912D10B48C3F38341DB03BB
:100A7C00405C09D55368094AC3F340435043084AC4
:100A8C00D35CB0FBF3F07047064B584370470348F8
:100A9C00704700BF001002403A0E000800127A00A6
:100AAC00380E000800093D002DE9F0410D460446C2
:100ABC0010B90120BDE8F081444A136803F0070324
:100ACC008B4228D321688E0730D4CA0743D43F4ABF
:100ADC00136803F00703AB4265D822683C4D12F053
:100AEC00040F6CD1130706D56B68226923F460538D
:100AFC0043EAC2036B60FFF7B1FF6B68354AC3F37F
:100B0C000313D35CD840344B1860344B1868FFF790
:100B1C008DFC0020CEE7136823F007030B43136012
:100B2C00136803F007038B42C3D1CBE7284B11F0BA
:100B3C00040F1EBF5A6842F4E0625A60080742BFB5
:100B4C005A6842F460525A605A68A06822F0F00267
:100B5C0002435A60B9E762681D4E012A33681AD104
:100B6C0013F4003FA5D0736841F2883823F00303D7
:100B7C0013437360FFF79CFC07467368626803F0CD
:100B8C000C03B3EB820FA2D0FFF792FCC01B4045C5
:100B9C00F3D903208EE7022A02D113F0007FE1E79C
:100BAC0013F0020FDEE7136823F007032B431360E7
:100BBC00136803F00703AB427FF47BAF8DE76B68E0
:100BCC00E16823F4E0630B436B608BE70020024089
:100BDC0000100240280E0008000000200800002031
:100BEC00044B054A5B68C3F30223D35C034A1068C9
:100BFC00D840704700100240200E00080000002072
:100C0C00044B054A5B68C3F3C223D35C034A1068E8
:100C1C00D840704700100240200E00080000002051
:100C2C0010B50446002851D0436A002B4AD14268C3
:100C3C00B2F5827F00D0C3610023A36294F85130D7
:100C4C0003F0FF0223B9204684F85020FFF746FB3F
:100C5C000223226884F851301368A06823F0400303
:100C6C001360636800F4044003F482730343E06888
:100C7C00A16900F400600343206900F00200034303
:100C8C00606900F00100034301F400700343E06964
:100C9C00090C00F038000343206A01F0040100F055
:100CAC0080000343A06A00F40050034313605160BA
:100CBC00D369002023F40063D3610123606584F8B9
:100CCC00513010BD0023C0E90433B5E70120F8E72B
:100CDC0010B504460368C1681A6922F440520A43ED
:100CEC001A6182680069D9680243606921F4B051C5
:100CFC0021F00C0102430A43DA605A69A16922F41B
:100D0C0040720A435A610E4A934215D1FFF778FF9D
:100D1C0019234343626820689200B3FBF2F3642208
:100D2C00B3FBF2F102FB11331B013233B3FBF2F3D1
:100D3C0003EB0113836010BDFFF752FFE8E700BF20
:100D4C000038014010B5044648B390F8413003F028
:100D5C00FF021BB980F84020FFF7FAFA242322681F
:100D6C0084F84130D368204623F40053D360FFF756
:100D7C00AFFF236800201A6922F490421A615A6965
:100D8C0022F02A025A61DA6842F40052DA60202317
:100D9C00606484F8413084F84230606310BD0120F7
:100DAC00FCE703460244934200D1704703F8011B51
:100DBC00F9E7000070B500260C4D0D4C641BA41017
:100DCC00A64209D100F01AF800260A4D0A4C641B01
:100DDC00A410A64205D170BD55F8043B98470136C6
:100DEC00EEE755F8043B98470136F2E74C0E000845
:100DFC004C0E00084C0E0008500E0008F8B500BF51
:100E0C00F8BC08BC9E467047F8B500BFF8BC08BCDF
:040E1C009E46704737
:100E200000000000010203040000000000000000B8
:100E3000010203040607080901020203040506076C
:0C0E400008090A0B0C0D0E0F101000002A
:040E4C003101000868
:040E50000D01000888
:0C0E540000127A000100000010000000F5
:04000005080003EDFF
:00000001FF
